:020000040800F2
:1000000060A900209D610008D5020008D702000801
:10001000DB020008DF020008E30200080000000025
:10002000000000000000000000000000E7020008DF
:10003000E902000800000000EB020008ED020008E1
:10004000B7610008B7610008B7610008B761000830
:10005000B7610008B7610008B7610008B761000820
:10006000B7610008B7610008B7610008B761000810
:10007000B7610008B7610008B7610008B761000800
:10008000B7610008B7610008B7610008B7610008F0
:10009000B7610008B7610008B7610008B7610008E0
:1000A000B7610008B7610008B7610008B7610008D0
:1000B000B76100082D5F0008B7610008B76100084C
:1000C000B7610008B7610008B7610008B7610008B0
:1000D000B761000813610008B7610008B761000844
:1000E000B7610008B7610008B7610008B761000890
:1000F000B7610008B7610008B7610008B761000880
:10010000B7610008B7610008B7610008B76100086F
:10011000B7610008B7610008B7610008B76100085F
:10012000B7610008B7610008B7610008B76100084F
:10013000B7610008B7610008B7610008B76100083F
:10014000B7610008B7610008B7610008B76100082F
:10015000B7610008B7610008B7610008B76100081F
:10016000B7610008B7610008B7610008B76100080F
:10017000B7610008B7610008B7610008B7610008FF
:10018000B7610008B761000800F002F800F067F8F6
:100190000AA090E8000C82448344AAF10107DA45E2
:1001A00001D100F05CF8AFF2090EBAE80F0013F0CD
:1001B000010F18BFFB1A43F00103184724B90100CF
:1001C00044B901000A444FF0000C10F8013B13F051
:1001D000070408BF10F8014B1D1108BF10F8015BA0
:1001E000641E05D010F8016B641E01F8016BF9D193
:1001F00013F0080F1EBF10F8014BAD1C0C1B09D1EA
:100200006D1E58BF01F801CBFAD505E014F8016B5B
:1002100001F8016B6D1EF9D59142D6D370470000ED
:100220000023002400250026103A28BF78C1FBD8FF
:10023000520728BF30C148BF0B607047642916F0D1
:100240000D80782916F04680732916F0528200201E
:1002500070471FB516F08BFF1FBD10B510BD16F00F
:100260006BFA1146FFF7F5FF00F008F816F089FA6F
:1002700003B4FFF7F2FF03BC05F0ECFE4FF4A060FF
:1002800005F0ACFFA82005F063FE4FF4E13005F067
:10029000EEFE00F035F900F0C4FD03F083FC5321BD
:1002A00040F2E73005F016FE09490868804709F07A
:1002B000BBFE15F0D1FD15F01FFE15F056FE05E052
:1002C000034841680020884713F03BF8F8E7000036
:1002D0001C000020704700BFFEE700BFFEE700BF24
:1002E000FEE700BFFEE770477047704770470000A9
:1002F0000CB50020019000907648006840F48030F2
:100300007449086000BF7348006800F40030009032
:100310000198401C0190009818B90198B0F5A04FC1
:10032000F1D16C48006800F4003010B10120009059
:1003300001E0002000900098012846D16548403037
:10034000006840F0805063494031086062480068AE
:1003500040F44040604908605E48083000685D49EC
:10036000083108600846006840F40040086008460C
:10037000006840F4A05008605848091F0860081F32
:10038000006840F08070091F086000BF5148006895
:1003900000F000700028F9D040F205705049086064
:1003A0004C480830006820F003004A4908310860D2
:1003B0000846006840F00200086000BF4548083069
:1003C000006800F00C000828F8D10CBD10B54548B5
:1003D000006840F47000434908603E48006840F0FF
:1003E00001003C49086000203A490831086039485A
:1003F00000683D490840374908603C48091D0860CD
:10040000081F006820F48020091F0860002031497F
:100410000C310860FFF76CFF4FF000603149803904
:10042000086010BD70B500200022022300240221C4
:10043000284D08352D6805F00C0020B1042806D0A1
:10044000082834D107E02A4D2A4E356033E02A4D82
:10045000284E35602FE01F4D2D1D2D68C5F38054AB
:100460001C4D2D1D2D6805F03F0154B1224DB5FBEB
:10047000F1F5184E361D3668C6F3881605FB06F2F0
:1004800009E01B4DB5FBF1F5124E361D3668C6F37B
:10049000881605FB06F20F4D2D1D2D68C5F301458D
:1004A0006D1C6B00B2FBF3F5124E356003E0104D8E
:1004B000104E356000BF00BF064D08352D68C5F3EE
:1004C00003150E4E705D0B4D2D68C540094E35600D
:1004D00070BD000000380240007000400854400722
:1004E000003C024088ED00E0FFFFF6FE10300024E3
:1004F0000024F4000000002000127A000400002014
:100500001CB50121202006F0E1FC4FF4C0600090F2
:1005100001208DF8040000208DF8060003208DF8DE
:10052000050001208DF807006946044805F04CFFDE
:100530004FF4C061014805F0C3FF1CBD0014024028
:1005400001B5BDF800000090BDF80000FE4908802C
:1005500008BD01B5BDF800000090BDF80000FA49E3
:10056000891C088008BD08B5F748801C00880090E9
:10057000BDF8000008BDF44A10804FF0D842A2F840
:100580008010704710B504462046FFF7D9FF0520BC
:1005900005F0F8FCFFF7E7FF10BDEC480089EA49D9
:1005A00008807047E849891C0880704730B50146CB
:1005B00001F01F04C1F34513CA0AE50205EB431518
:1005C0001544A8B230BD00BF011EA0F10102D0B297
:1005D000FAD1704710B502460C46DC48808841F6D7
:1005E0006311884247D1D9488079A8B9D748008893
:1005F000401E801A82B2D5494889FFF7A1FF00202A
:10060000FFF7A7FF0020FFF7A4FF1012FFF7A1FFDD
:10061000D0B2FFF79EFF16E0CC494889FFF790FF64
:100620001012FFF796FFD0B2FFF793FFC749098872
:10063000491EC1F30F20FFF78CFFC4490978491EFA
:10064000C8B2FFF786FFC1498889FFF779FF2012FA
:10065000FFF77FFFE0B2FFF77CFFBC494988491EE6
:10066000C1F30F20FFF775FFB8498978491EC8B25A
:10067000FFF76FFF3AE0B548808845F21051884295
:1006800020D1B2494889FFF75BFF1012FFF761FFE5
:10069000AE494989491C88B2FFF752FFD0B2FFF733
:1006A00058FFAA498889FFF74BFF2012FFF751FF37
:1006B000A6498989491C88B2FFF742FFE0B2FFF7DB
:1006C00048FF13E0A1494889FFF73AFF1012FFF7EE
:1006D00040FFD0B2FFF73DFF9C498889FFF730FF0C
:1006E0002012FFF736FFE0B2FFF733FF10BD2DE910
:1006F000F04105460E4600240027A0469348008896
:10070000A84203DD91484088B04202DC0020BDE8E9
:10071000F08131462846FFF75DFF8C48808845F21E
:100720001051884204D14FF43850FFF709FF02E01E
:100730002E20FFF705FFFFF716FF04468348808849
:1007400041F66311884201D12046E0E7FFF70BFF35
:100750000446FFF708FF8046E7B24FF6FF7000EA55
:100760000727E012C002B91240EA411040EAE8202F
:10077000CDE700B57548808845F21051884204D114
:100780004FF42450FFF7DCFE02E02920FFF7D8FEEB
:1007900000BD00B56D48808845F21051884204D1F3
:1007A0004FF42050FFF7CCFE02E02820FFF7C8FEF0
:1007B00000BDF0B505460024002764488079012873
:1007C00005D16248808841F66311884208D15F48AC
:1007D0008079F0B95D48808841F66311884218D16C
:1007E000082D15D2DFE805F00406080A0C0E1012D9
:1007F00006250DE007250BE0042509E0052507E0A7
:10080000012505E0002503E0032501E0022500BFE6
:1008100000BF082D1CD2DFE805F00406090C0F12FA
:10082000151800BF14E044F0800411E044F04004C7
:100830000EE044F0C0040BE044F0200408E044F073
:10084000600405E044F0A00402E044F0E00400BFCE
:1008500000BF3E48808845F21051884202D14FF4D3
:10086000585700E036273948808849F2413188429C
:1008700005D03648808847F28971884201D144F01A
:10088000080421463846FFF776FE3048808841F656
:10089000631188421DD004F0200068B12B48008805
:1008A0002A494988884214DA284806884088274916
:1008B0000880084646800CE024480088234949887F
:1008C000884206DD2148068840882049088008467D
:1008D00046801E48808845F21051884257D11B49F6
:1008E0004889FFF72DFE0020FFF733FE174949899D
:1008F000491C88B2FFF724FE0020FFF72AFE1349A7
:100900004989891C88B2FFF71BFE10490988491ED6
:10091000C1F30F20FFF71DFE0C494989C91C88B29D
:10092000FFF70EFE09490978491EC8B2FFF711FE0C
:1009300006498889FFF704FE0020FFF70AFE0349F5
:100940008989491C88B203E07E00006C58010020B0
:10095000FFF7F6FD0020FFF7FCFDFE498989891CA1
:1009600088B2FFF7EDFDFB494988491EC1F30F200E
:10097000FFF7EFFDF7498989C91C88B2FFF7E0FD51
:10098000F4498978491EC8B2FFF7E3FD2DE0F1492B
:100990004889FFF7D5FD0020FFF7DBFD0020FFF7BA
:1009A000D8FDEC490988491EC1F30F20FFF7D1FD9E
:1009B000E8490978491EC8B2FFF7CBFDE5498889A7
:1009C000FFF7BEFD0020FFF7C4FD0020FFF7C1FDCB
:1009D000E0494988491EC1F30F20FFF7BAFDDD4900
:1009E0008978491EC8B2FFF7B4FDF0BD30B50446A2
:1009F0000D4629462046FFF7EDFDFFF7CEFDD64810
:100A00000088D649088030BD30B504460D46D1482F
:100A1000808845F21051884220D1CE494889FFF79D
:100A20008FFD2012FFF795FDCA494989491C88B2FC
:100A3000FFF786FDE0B2FFF78CFDC6498889FFF716
:100A40007FFD2812FFF785FDC2498989491C88B2BC
:100A5000FFF776FDE8B2FFF77CFD42E0BD488088F5
:100A600041F66311884228D1BA48807920B9B94843
:100A70000088401E001B84B2B6494889FFF760FD1C
:100A80002012FFF766FDE0B2FFF763FD2012FFF7CB
:100A900060FDE0B2FFF75DFDAE498889FFF750FDCC
:100AA0002812FFF756FDE8B2FFF753FD2812FFF7B3
:100AB00050FDE8B2FFF74DFD13E0A6494889FFF766
:100AC0003FFD2012FFF745FDE0B2FFF742FDA149CF
:100AD0008889FFF735FD2812FFF73BFDE8B2FFF7E5
:100AE00038FD9C4800899D49891E08804FF0D840F8
:100AF000A0F8802030BD70B52DED048B0446BE20DB
:100B0000FFF71EFD0520FFF724FD204615F078FFB6
:100B100041EC190B9FED920B53EC102B15F0C0FF1D
:100B200041EC180B15F028FF85B22846FFF711FDA0
:100B30000120FFF70EFDFF20FFF70BFD0020FFF760
:100B400008FD0020FFF705FDBDEC048B70BD10B55E
:100B5000044680488471002C45D1F0207D490880EE
:100B60004FF4A07048800846808845F210518842B2
:100B700010D14FF43050774908814FF42850488104
:100B80004FF42C5088814FF4F07008804FF4487077
:100B900048801AE06F48808841F6631188420DD181
:100BA0002C206C4908812B2048812A2088814FF411
:100BB000F07008804FF44870488006E02C206549AA
:100BC00008812A2048812B2088816248808845F24C
:100BD000103188424CD14FF4A0705E4908804FF428
:100BE000F070488044E04FF4A0705A490880F0202B
:100BF00048800846808845F21051884210D14FF451
:100C00003050544908814FF4285048814FF42C50FB
:100C100088814FF4487008804FF4F07048801AE0E3
:100C20004C48808841F6631188420DD12C204949F7
:100C300008812A2048812B2088814FF44870088041
:100C40004FF4F070488006E02C20424908812A20A9
:100C500048812B2088813F48808845F210318842A6
:100C600006D14FF4F0703B4908804FF4A0704880E3
:100C70000020FFF79EFD10BD2DE9F04104460D4612
:100C80001E46A018401E87B2A819401E1FFA80F801
:100C90003048808841F66311884231D12D488079EF
:100CA00001282DD02B480088801A001B84B2A81977
:100CB000401E86B227494889FFF742FC2012FFF701
:100CC00048FCE0B2FFF745FCA118491EC1F30F2014
:100CD000FFF73FFCA118491EC8B2FFF73AFC1D49B7
:100CE0008889FFF72DFC2812FFF733FCE8B2FFF7E5
:100CF00030FC3012FFF72DFCF0B2FFF72AFC79E050
:100D00001448808845F21051884251D111494889D0
:100D1000FFF716FC2012FFF71CFC0E494989491CFD
:100D200088B2FFF70DFCE0B2FFF713FC09494989CF
:100D3000891C88B2FFF704FC3812FFF70AFC05494A
:100D40004989C91C88B2FFF7FBFBF8B2FFF701FC29
:100D5000004909E058010020140000208000006CC8
:100D600066666666666604408889FFF7E9FB2812B6
:100D7000FFF7EFFBFD498989491C88B2FFF7E0FBCB
:100D8000E8B2FFF7E6FBF9498989891C88B2FFF7C9
:100D9000D7FB4FEA2820FFF7DCFBF4498989C91CFF
:100DA00088B2FFF7CDFB08F0FF00FFF7D2FB21E090
:100DB000EE494889FFF7C4FB2012FFF7CAFBE0B2F7
:100DC000FFF7C7FB3812FFF7C4FBF8B2FFF7C1FB10
:100DD000E6498889FFF7B4FB2812FFF7BAFBE8B2AF
:100DE000FFF7B7FB4FEA2820FFF7B3FB08F0FF003F
:100DF000FFF7AFFBBDE8F08170B504460026DB4885
:100E000005884088454300210846FFF7E3FBFFF7CC
:100E1000C4FB00BF02E0D6480480761CAE42FAD381
:100E200070BD00B5A1B00020209001217A2006F00D
:100E30004DF80121084606F081F84FF400401E905D
:100E400001208DF87C0000208DF87E0002208DF8B6
:100E50007D0001208DF87F001EA9C64805F0B4FA78
:100E60004CF233701E9002208DF87C0000208DF82B
:100E70007E0003208DF87D0001208DF87F001EA9E3
:100E8000BD4805F0A1FA4FF680701E9002208DF843
:100E90007C0000208DF87E0003208DF87D0001206D
:100EA0008DF87F001EA9B54805F08EFA4FF48050EA
:100EB0001E9002208DF87C0000208DF87E0003201B
:100EC0008DF87D0001208DF87F001EA9AC4805F04B
:100ED0007BFA4FF480501E9002208DF87C00002099
:100EE0008DF87E0003208DF87D0001208DF87F00B5
:100EF0001EA9A44805F068FA0C2200219E4805F0BE
:100F0000EEFA0C2201219C4805F0E9FA0C2204219A
:100F1000994805F0E4FA0C220521974805F0DFFA1C
:100F20000C220821944805F0DAFA0C220921924893
:100F300005F0D5FA0C220A218F4805F0D0FA0C22D0
:100F40000E218D4805F0CBFA0C220F218A4805F0BE
:100F5000C6FA0C220721894805F0C1FA0C220821A3
:100F6000864805F0BCFA0C220921844805F0B7FA3E
:100F70000C220A21814805F0B2FA0C220B217F488D
:100F800005F0ADFA0C2211467C4805F0A8FA0C22B7
:100F90000D217A4805F0A3FA0C220E21774805F0BE
:100FA0009EFA0C220F21754805F099FA0C22114681
:100FB000734805F094FA0C221146724805F08FFA36
:100FC0000F200890002009903C200A9000200B90F0
:100FD0000C900D900E9009200190002002900820A6
:100FE00003900020049005900690079006200F9033
:100FF0000020109011901020129000201390159056
:101000001490169017904FF480501890002019906B
:101010004FF480401A9000201B9008A81C9001A853
:101020001D900FA805F0AFFA0121062005F036FB50
:10103000322004F0EFFFD320FFF782FAFFF793FA94
:101040004A498880FFF78FFA48498880FFF78BFA72
:1010500046498880084680884FF6FF7101EA0020E3
:1010600042498880FFF77FFA4049898808433F4911
:1010700088800846808849F24131884275D0042032
:10108000FFF75EFAFFF76FFA38498880FFF76BFACF
:1010900036498880FFF767FA344988800846808897
:1010A0004FF6FF7101EA002030498880FFF75BFAB4
:1010B0002E49898808432D4988800846808848F24F
:1010C0005251884203D147F28970284988802748C5
:1010D000808847F289718842D0D0D420FFF730FA57
:1010E000FFF741FA21498880FFF73DFA1F498880C0
:1010F000FFF739FA1D498880084680884FF6FF714E
:1011000001EA002019498880FFF72DFA17498988DC
:101110000843164988800846808845F21031884285
:1011200079D055214FF47040FFF725FAAA214FF2EC
:101130000100FFF720FA52214FF20200FFF71BFADD
:1011400008214FF20300FFF716FA01214FF20400C5
:10115000FFF711FA4FF44540FFF7F2F9FFF703FAF2
:1011600002498880084680880EE054E0580100203B
:101170008000006C00040240000C0240001002409D
:1011800000140240001802404FF6FF7101EA0020EF
:10119000FE4988804CF20150FFF7D2F9FFF7E3F9DE
:1011A000FA4989880843F9498880052004F032FF0C
:1011B000F6488088B0F5004F03D145F21050F3494E
:1011C0008880F248808845F21051884223D0A120BF
:1011D000FFF7B6F9FFF7C7F9EC498880FFF7C3F9C5
:1011E000EA498880084680884FF6FF7101EA0020AE
:1011F000E6498880FFF7B7F9E44989880843E3495D
:1012000088800846808845F26171884203D141F6A2
:101210006310DE498880DD48808849F24131884288
:1012200017D0DA48808847F28971884211D0D748B0
:10123000808845F2103188420BD0D448808845F22E
:101240001051884205D0D148808841F66311884208
:101250002CD1CF48006820F00F004FF02041C1F89A
:101260001C010846D0F81C0120F47060C1F81C0174
:101270000846D0F81C0140F00300C1F81C01C34827
:10128000808847F28971884208D1C148006840F4DB
:1012900040704FF02041C1F81C0107E0BC480068D5
:1012A00040F400704FF02041C1F81C01B74881881C
:1012B000B8A014F055FFB548808849F24131884202
:1012C0007ED1CF20FFF73CF90020FFF742F9C12083
:1012D000FFF73FF93020FFF73CF9ED20FFF730F939
:1012E0006420FFF736F90320FFF733F91220FFF7E8
:1012F00030F98120FFF72DF9E820FFF721F985204B
:10130000FFF727F91020FFF724F97A20FFF721F9DA
:10131000CB20FFF715F93920FFF71BF92C20FFF739
:1013200018F90020FFF715F93420FFF712F9022011
:10133000FFF70FF9F720FFF703F92020FFF709F96E
:10134000EA20FFF7FDF80020FFF703F90020FFF780
:1013500000F9C020FFF7F4F81B20FFF7FAF8C120CE
:10136000FFF7EEF80120FFF7F4F8C520FFF7E8F8E3
:101370003020FFF7EEF83020FFF7EBF8C720FFF73B
:10138000DFF8B720FFF7E5F83620FFF7D9F8482057
:10139000FFF7DFF83A20FFF7D3F85520FFF7D9F829
:1013A000B120FFF7CDF80020FFF7D3F81A20FFF7A0
:1013B000D0F8B620FFF7C4F80A20FFF7CAF800E01B
:1013C00097E0A220FFF7C5F8F220FFF7B9F8002058
:1013D000FFF7BFF82620FFF7B3F80120FFF7B9F8B1
:1013E000E020FFF7ADF80F20FFF7B3F82A20FFF752
:1013F000B0F82820FFF7ADF80820FFF7AAF80E2074
:10140000FFF7A7F80820FFF7A4F85420FFF7A1F88A
:10141000A920FFF79EF84320FFF79BF80A20FFF76B
:1014200098F80F20FFF795F80020FFF792F80020BA
:10143000FFF78FF80020FFF78CF80020FFF789F8FE
:10144000E120FFF77DF80020FFF783F81520FFF774
:1014500080F81720FFF77DF80720FFF77AF81120B2
:10146000FFF777F80620FFF774F82B20FFF771F8E5
:101470005620FFF76EF83C20FFF76BF80520FFF7CA
:1014800068F81020FFF765F80F20FFF762F83F209B
:10149000FFF75FF83F20FFF75CF80F20FFF759F8E0
:1014A0002B20FFF74DF80020FFF753F80020FFF73F
:1014B00050F80120FFF74DF83F20FFF74AF82A20A7
:1014C000FFF73EF80020FFF744F80020FFF741F84F
:1014D0000020FFF73EF8EF20FFF73BF81120FFF761
:1014E0002FF8782004F096FD2920FFF729F802F064
:1014F000B3B82648808847F2897188427DD111208F
:10150000FFF71EF8782004F085FD3620FFF718F865
:101510000020FFF71EF83A20FFF712F80520FFF72A
:1015200018F8B220FFF70CF80C20FFF712F80C2087
:10153000FFF70FF80020FFF70CF83320FFF709F84A
:101540003320FFF706F8B720FEF7FAFF3520FFF744
:1015500000F8BB20FEF7F4FF3220FEF7FAFFC020B0
:10156000FEF7EEFF0C20FEF7F4FFC220FEF7E8FFC7
:101570000120FEF7EEFFC320FEF7E2FF1020FEF78A
:10158000E8FFC420FEF7DCFF20200BE0580100201C
:101590001C0100A0204C43442049443A25780D0A00
:1015A00000000000FEF7D5FFC620FEF7C9FF0F20A0
:1015B000FEF7CFFFD020FEF7C3FFA420FEF7C9FF40
:1015C000A120FEF7C6FFE020FEF7BAFFD020FEF70D
:1015D000C0FF0020FEF7BDFF0220FEF7BAFF072084
:1015E000FEF7B7FF0A20FEF7B4FF2820FEF7B1FF91
:1015F0003220FEF7AEFF442000E062E0FEF7A9FFD4
:101600004220FEF7A6FF0620FEF7A3FF0E20FEF7FE
:10161000A0FF1220FEF79DFF1420FEF79AFF17206F
:10162000FEF797FFE120FEF78BFFD020FEF791FF3A
:101630000020FEF78EFF0220FEF78BFF0720FEF74B
:1016400088FF0A20FEF785FF2820FEF782FF312061
:10165000FEF77FFF5420FEF77CFF4720FEF779FF5F
:101660000E20FEF776FF1C20FEF773FF1720FEF713
:1016700070FF1B20FEF76DFF1E20FEF76AFF2A2079
:10168000FEF75EFF0020FEF764FF0020FEF761FF1B
:101690000020FEF75EFFEF20FEF75BFF2B20FEF73A
:1016A0004FFF0020FEF755FF0020FEF752FF0120FC
:1016B000FEF74FFF3F20FEF74CFF2920FEF740FFCB
:1016C00015E7FE48808845F21031884240F07C875B
:1016D000ED20FEF735FF0120FEF73BFFFE20FEF771
:1016E00038FFEE20FEF72CFFDE20FEF732FF212030
:1016F000FEF72FFFF120FEF723FF0120FEF729FF61
:10170000DF20FEF71DFF1020FEF723FFC420FEF7A9
:1017100017FF8F20FEF71DFFC620FEF711FF0020E8
:10172000FEF717FFE220FEF714FFE220FEF711FF9D
:10173000E220FEF70EFFBF20FEF702FFAA20FEF711
:1017400008FFB020FEF7FCFE0D20FEF702FF002090
:10175000FEF7FFFE0D20FEF7FCFE0020FEF7F9FE6F
:101760001120FEF7F6FE0020FEF7F3FE1920FEF72B
:10177000F0FE0020FEF7EDFE2120FEF7EAFE00203D
:10178000FEF7E7FE2D20FEF7E4FE0020FEF7E1FE67
:101790003D20FEF7DEFE0020FEF7DBFE5D20FEF7BB
:1017A000D8FE0020FEF7D5FE5D20FEF7D2FE002019
:1017B000FEF7CFFEB120FEF7C3FE8020FEF7C9FE84
:1017C0000020FEF7C6FE8B20FEF7C3FE0020FEF7CA
:1017D000C0FE9620FEF7BDFE0020FEF7BAFEB22046
:1017E000FEF7AEFE0020FEF7B4FE0020FEF7B1FECD
:1017F0000220FEF7AEFE0020FEF7ABFE0320FEF750
:10180000A8FE0020FEF7A5FEB320FEF799FE0020FB
:10181000FEF79FFE0020FEF79CFE0020FEF799FEDB
:101820000020FEF796FE0020FEF793FE0020FEF754
:1018300090FE0020FEF78DFE0020FEF78AFE0020BD
:10184000FEF787FE0020FEF784FE0020FEF781FEF3
:101850000020FEF77EFE0020FEF77BFE0020FEF754
:1018600078FE0020FEF775FE0020FEF772FE0020D5
:10187000FEF76FFE0020FEF76CFE0020FEF769FE0B
:101880000020FEF766FE0020FEF763FE0020FEF754
:1018900060FE0020FEF75DFE0020FEF75AFEB42039
:1018A000FEF74EFE8B20FEF754FE0020FEF751FEA1
:1018B0009620FEF74EFE0020FEF74BFEA120FEF71D
:1018C00048FE0020FEF745FEB520FEF739FE022057
:1018D000FEF73FFE0020FEF73CFE0320FEF739FE38
:1018E0000020FEF736FE0420FEF733FE0020FEF750
:1018F00030FEB620FEF724FE0020FEF72AFE002070
:10190000FEF727FEB720FEF71BFE0020FEF721FEA4
:101910000020FEF71EFE3F20FEF71BFE0020FEF714
:1019200018FE5E20FEF715FE0020FEF712FE642072
:10193000FEF70FFE0020FEF70CFE8C20FEF709FEDE
:101940000020FEF706FEAC20FEF703FE0020FEF7A7
:1019500000FEDC20FEF7FDFD0020FEF7FAFD702002
:10196000FEF7F7FD0020FEF7F4FD9020FEF7F1FDF5
:101970000020FEF7EEFDEB20FEF7EBFD0020FEF76A
:10198000E8FDDC20FEF7E5FD0020FEF7E2FDB820D3
:10199000FEF7D6FD0020FEF7DCFD0020FEF7D9FDA6
:1019A0000020FEF7D6FD0020FEF7D3FD0020FEF755
:1019B000D0FD0020FEF7CDFD0020FEF7CAFD00207F
:1019C000FEF7C7FDBA20FEF7BBFD2420FEF7C1FDE0
:1019D0000020FEF7BEFD0020FEF7BBFD0020FEF755
:1019E000B8FDC120FEF7ACFD2020FEF7B2FD0020BF
:1019F000FEF7AFFD5420FEF7ACFD0020FEF7A9FD79
:101A0000FF20FEF7A6FD0020FEF7A3FDC220FEF793
:101A100097FD0A20FEF79DFD0020FEF79AFD0420A9
:101A2000FEF797FD0020FEF794FDC320FEF788FD2A
:101A30003C20FEF78EFD0020FEF78BFD3A20FEF7DE
:101A400088FD0020FEF785FD3920FEF782FD00208D
:101A5000FEF77FFD3720FEF77CFD0020FEF779FDC5
:101A60003C20FEF776FD0020FEF773FD3620FEF7E2
:101A700070FD0020FEF76DFD3220FEF76AFD0020AC
:101A8000FEF767FD2F20FEF764FD0020FEF761FDE5
:101A90002C20FEF75EFD0020FEF75BFD2920FEF7FF
:101AA00058FD0020FEF755FD2620FEF752FD0020D0
:101AB000FEF74FFD2420FEF74CFD01E05801002009
:101AC0000020FEF746FD2420FEF743FD0020FEF730
:101AD00040FD2320FEF73DFD0020FEF73AFD3C20AF
:101AE000FEF737FD0020FEF734FD3620FEF731FD0E
:101AF0000020FEF72EFD3220FEF72BFD0020FEF722
:101B000028FD2F20FEF725FD0020FEF722FD2C20CA
:101B1000FEF71FFD0020FEF71CFD2920FEF719FD32
:101B20000020FEF716FD2620FEF713FD0020FEF72D
:101B300010FD2420FEF70DFD0020FEF70AFD2420F5
:101B4000FEF707FD0020FEF704FD2320FEF701FD50
:101B50000020FEF7FEFCC420FEF7F2FC6220FEF738
:101B6000F8FC0020FEF7F5FC0520FEF7F2FC002053
:101B7000FEF7EFFC8420FEF7ECFC0020FEF7E9FC0A
:101B8000F020FEF7E6FC0020FEF7E3FC1820FEF74D
:101B9000E0FC0020FEF7DDFCA420FEF7DAFC0020CC
:101BA000FEF7D7FC1820FEF7D4FC0020FEF7D1FC8E
:101BB0005020FEF7CEFC0020FEF7CBFC0C20FEF7F9
:101BC000C8FC0020FEF7C5FC1720FEF7C2FC002071
:101BD000FEF7BFFC9520FEF7BCFC0020FEF7B9FC29
:101BE000F320FEF7B6FC0020FEF7B3FCE620FEF77C
:101BF000B0FC0020FEF7ADFCC520FEF7A1FC3220B2
:101C0000FEF7A7FC0020FEF7A4FC4420FEF7A1FC91
:101C10000020FEF79EFC6520FEF79BFC0020FEF7EF
:101C200098FC7620FEF795FC0020FEF792FC8820B9
:101C3000FEF78FFC0020FEF78CFCC620FEF780FC30
:101C40002020FEF786FC0020FEF783FC1720FEF71D
:101C500080FC0020FEF77DFC0120FEF77AFC0020CE
:101C6000FEF777FCC720FEF76BFC0020FEF771FC47
:101C70000020FEF76EFC0020FEF76BFC0020FEF754
:101C800068FCC820FEF75CFC0020FEF762FC002028
:101C9000FEF75FFC0020FEF75CFC0020FEF759FC1D
:101CA000C920FEF74DFC0020FEF753FC0020FEF794
:101CB00050FC0020FEF74DFC0020FEF74AFC0020FF
:101CC000FEF747FC0020FEF744FC0020FEF741FC35
:101CD0000020FEF73EFC0020FEF73BFC0020FEF754
:101CE00038FC0020FEF735FC0020FEF732FC002017
:101CF000FEF72FFC0020FEF72CFC0020FEF729FC4D
:101D00000020FEF726FCE020FEF71AFC1620FEF766
:101D100020FC0020FEF71DFC1C20FEF71AFC002012
:101D2000FEF717FC2120FEF714FC0020FEF711FC43
:101D30003620FEF70EFC0020FEF70BFC4620FEF7D7
:101D400008FC0020FEF705FC5220FEF702FC0020F4
:101D5000FEF7FFFB6420FEF7FCFB0020FEF7F9FB1B
:101D60007A20FEF7F6FB0020FEF7F3FB8B20FEF750
:101D7000F0FB0020FEF7EDFB9920FEF7EAFB0020C8
:101D8000FEF7E7FBA820FEF7E4FB0020FEF7E1FBEF
:101D9000B920FEF7DEFB0020FEF7DBFBC420FEF7D8
:101DA000D8FB0020FEF7D5FBCA20FEF7D2FB0020AF
:101DB000FEF7CFFBD220FEF7CCFB0020FEF7C9FBDD
:101DC000D920FEF7C6FB0020FEF7C3FBE020FEF79C
:101DD000C0FB0020FEF7BDFBF320FEF7BAFB00209E
:101DE000FEF7B7FBE120FEF7ABFB1620FEF7B1FBD9
:101DF0000020FEF7AEFB1C20FEF7ABFB0020FEF739
:101E0000A8FB2220FEF7A5FB0020FEF7A2FB362050
:101E1000FEF79FFB0020FEF79CFB4520FEF799FB99
:101E20000020FEF796FB5220FEF793FB0020FEF702
:101E300090FB6420FEF78DFB0020FEF78AFB7A20E2
:101E4000FEF787FB0020FEF784FB8B20FEF781FB6B
:101E50000020FEF77EFB9920FEF77BFB0020FEF7BB
:101E600078FBA820FEF775FB0020FEF772FBB92077
:101E7000FEF76FFB0020FEF76CFBC420FEF769FB4A
:101E80000020FEF766FBCA20FEF763FB0020FEF78A
:101E900060FBD220FEF75DFB0020FEF75AFBD82046
:101EA000FEF757FB0020FEF754FBE020FEF751FB46
:101EB0000020FEF74EFBF320FEF74BFB0020FEF761
:101EC00048FBE220FEF73CFB0520FEF742FB00202A
:101ED000FEF73FFB0B20FEF73CFB0020FEF739FB33
:101EE0001B20FEF736FB0020FEF733FB3420FEF705
:101EF00030FB0020FEF72DFB4420FEF72AFB0020DC
:101F0000FEF727FB4F20FEF724FB0020FEF721FB06
:101F10006120FEF71EFB0020FEF71BFB7920FEF779
:101F200018FB0020FEF715FB8820FEF712FB0020AF
:101F3000FEF70FFB9720FEF70CFB0020FEF709FBD6
:101F4000A620FEF706FB0020FEF703FBB720FEF7F6
:101F500000FB0020FEF7FDFAC220FEF7FAFA00208F
:101F6000FEF7F7FAC720FEF7F4FA0020FEF7F1FAC1
:101F7000D120FEF7EEFA0020FEF7EBFAD620FEF7AE
:101F8000E8FA0020FEF7E5FADD20FEF7E2FA00208D
:101F9000FEF7DFFAF320FEF7DCFA0020FEF7D9FAAD
:101FA000E320FEF7CDFA0520FEF7D3FA0020FEF776
:101FB000D0FA0A20FEF7CDFA0020FEF7CAFA1C205C
:101FC000FEF7C7FA0020FEF7C4FA3320FEF7C1FA85
:101FD0000020FEF7BEFA4420FEF7BBFA0020FEF711
:101FE000B8FA5020FEF7B5FA0020FEF7B2FA6220E8
:101FF000FEF7AFFA0020FEF7ACFA7820FEF7A9FA58
:102000000020FEF7A6FA8820FEF7A3FA0020FEF7CC
:10201000A0FA9720FEF79DFA0020FEF79AFAA62074
:10202000FEF797FA0020FEF794FAB720FEF791FA30
:102030000020FEF78EFAC220FEF78BFA0020FEF792
:1020400088FAC720FEF785FA0020FEF782FAD12031
:10205000FEF77FFA0020FEF77CFAD520FEF779FA2A
:102060000020FEF776FADD20FEF773FA0020FEF777
:1020700070FAF320FEF76DFA0020FEF76AFAE4200A
:10208000FEF75EFA0120FEF764FA0020FEF761FA1F
:102090000120FEF75EFA0020FEF75BFA0220FEF751
:1020A00058FA0020FEF755FA2A20FEF752FA0020CF
:1020B000FEF74FFA3C20FEF74CFA0020FEF749FAF3
:1020C0004B20FEF746FA0020FEF743FA5D20FEF7AC
:1020D00040FA0020FEF73DFA7420FEF73AFA00209D
:1020E000FEF737FA8420FEF734FA0020FEF731FAC3
:1020F0009320FEF72EFA0020FEF72BFAA220FEF71F
:1021000028FA0020FEF725FAB320FEF722FA002075
:10211000FEF71FFABE20FEF71CFA0020FEF719FAA0
:10212000C420FEF716FA0020FEF713FACD20FEF7C2
:1021300010FA0020FEF70DFAD320FEF70AFA00206D
:10214000FEF707FADD20FEF704FA0020FEF701FA99
:10215000F320FEF7FEF90020FEF7FBF9E520FEF77D
:10216000EFF90020FEF7F5F90020FEF7F2F9002064
:10217000FEF7EFF90020FEF7ECF90220FEF7E9F98F
:102180000020FEF7E6F92920FEF7E3F90020FEF72C
:10219000E0F93C20FEF7DDF90020FEF7DAF94B20EC
:1021A000FEF7D7F90020FEF7D4F95D20FEF7D1F94C
:1021B0000020FEF7CEF97420FEF7CBF90020FEF7E1
:1021C000C8F98420FEF7C5F90020FEF7C2F9932074
:1021D000FEF7BFF90020FEF7BCF9A220FEF7B9F91F
:1021E0000020FEF7B6F9B320FEF7B3F90020FEF7A2
:1021F000B0F9BE20FEF7ADF90020FEF7AAF9C42021
:10220000FEF7A7F90020FEF7A4F9CD20FEF7A1F90B
:102210000020FEF79EF9D320FEF79BF90020FEF781
:1022200098F9DC20FEF795F90020FEF792F9F320EB
:10223000FEF78FF90020FEF78CF9E620FEF780F913
:102240001120FEF786F90020FEF783F93420FEF70F
:1022500080F90020FEF77DF95620FEF77AF900207C
:10226000FEF777F97620FEF774F90020FEF771F992
:102270007720FEF76EF90020FEF76BF96620FEF777
:1022800068F90020FEF765F98820FEF762F9002062
:10229000FEF75FF99920FEF75CF90020FEF759F987
:1022A000BB20FEF756F90020FEF753F99920FEF700
:1022B00050F90020FEF74DF96620FEF74AF900209C
:1022C000FEF747F95520FEF744F90020FEF741F9E3
:1022D0005520FEF73EF90020FEF73BF94520FEF7BA
:1022E00038F90020FEF735F94320FEF732F90020D7
:1022F000FEF72FF94420FEF72CF90020FEF729F90C
:10230000E720FEF71DF93220FEF723F90020FEF743
:1023100020F95520FEF71DF90020FEF71AF9762066
:10232000FEF717F90020FEF714F96620FEF711F901
:102330000020FEF70EF96720FEF70BF90020FEF7EC
:1023400008F96720FEF705F90020FEF702F987205B
:10235000FEF7FFF80020FEF7FCF89920FEF7F9F8E9
:102360000020FEF7F6F8BB20FEF7F3F80020FEF79A
:10237000F0F89920FEF7EDF80020FEF7EAF8772054
:10238000FEF7E7F80020FEF7E4F84420FEF7E1F856
:102390000020FEF7DEF85620FEF7DBF80020FEF7FF
:1023A000D8F82320FEF7D5F80020FEF7D2F8332026
:1023B000FEF7CFF80020FEF7CCF84520FEF7C9F86D
:1023C0000020FEF7C6F8E820FEF7BAF80020FEF776
:1023D000C0F80020FEF7BDF89920FEF7BAF80020FB
:1023E000FEF7B7F88720FEF7B4F80020FEF7B1F843
:1023F0008820FEF7AEF80020FEF7ABF87720FEF756
:10240000A8F80020FEF7A5F86620FEF7A2F8002045
:10241000FEF79FF88820FEF79CF80020FEF799F859
:10242000AA20FEF796F80020FEF793F8BB20FEF7EF
:1024300090F80020FEF78DF89920FEF78AF800202A
:10244000FEF787F86620FEF784F80020FEF781F893
:102450005520FEF77EF80020FEF77BF85520FEF7AA
:1024600078F80020FEF775F84420FEF772F8002097
:10247000FEF76FF84420FEF76CF80020FEF769F8CD
:102480005520FEF766F80020FEF763F8E920FEF716
:1024900057F8AA20FEF75DF80020FEF75AF8002052
:1024A000FEF757F80020FEF754F80020FEF748F832
:1024B000AA20FEF74EF8CF20FEF742F80020FEF7E4
:1024C00048F80020FEF745F80020FEF742F800200B
:1024D000FEF73FF80020FEF73CF80020FEF739F841
:1024E0000020FEF736F80020FEF733F80020FEF754
:1024F00030F80020FEF72DF80020FEF72AF8002023
:10250000FEF727F80020FEF724F80020FEF721F858
:102510000020FEF71EF80020FEF71BF80020FEF753
:1025200018F8F020FEF70CF80020FEF712F8502003
:10253000FEF70FF80020FEF70CF80020FEF709F870
:102540000020FEF706F8F320FDF7FAFF0020FEF763
:1025500000F8F920FDF7F4FF0620FDF7FAFF102040
:10256000FDF7F7FF2920FDF7F4FF0020FDF7F1FF4D
:102570003A20FDF7E5FF5520FDF7EBFF1120FDF7B1
:10258000DFFF642003F046FD2920FDF7D9FF352049
:10259000FDF7D6FF0020FDF7DCFF5120FDF7D0FF4F
:1025A000FF20FDF7D6FF5320FDF7CAFF2C20FDF7D3
:1025B000D0FF5520FDF7C4FF8220FDF7CAFF2C2075
:1025C000FDF7BEFF01F048B8FE48808845F2105183
:1025D00088427DD155214FF47040FDF7CCFFAA21F0
:1025E0004FF20100FDF7C7FF52214FF20200FDF745
:1025F000C2FF08214FF20300FDF7BDFF01214FF29A
:102600000400FDF7B8FF0D214FF43040FDF7B3FF94
:102610000D214BF20100FDF7AEFF0D214BF2020040
:10262000FDF7A9FF34214FF43640FDF7A4FF342114
:102630004BF20160FDF79FFF34214BF20260FDF782
:102640009AFF0D214FF43140FDF795FF0D214BF21C
:102650000110FDF790FF0D214BF20210FDF78BFFEB
:1026600034214FF43740FDF786FF34214BF20170DF
:10267000FDF781FF34214BF20270FDF77CFF002152
:102680004FF43240FDF777FF00214BF20120FDF7B8
:1026900072FF00214BF20220FDF76DFF24214FF461
:1026A0003840FDF768FF24214BF60100FDF763FF7A
:1026B00024214BF60200FDF75EFF01214FF43F405D
:1026C000FDF759FF0F214FF43340FDF754FF00E0B1
:1026D000FDE30F214BF20130FDF74DFF0F214BF2CF
:1026E0000230FDF748FF34214FF43940FDF743FF36
:1026F00034214BF60110FDF73EFF34214BF602105A
:10270000FDF739FF08214FF43540FDF734FF08216C
:102710004BF20150FDF72FFF08214BF20250FDF75D
:102720002AFF03214FF44240FDF725FF24214FF4F7
:102730003A40FDF720FF24214BF60120FDF71BFF57
:1027400024214BF60220FDF716FF00214FF43C40F8
:10275000FDF711FF78214BF60140FDF70CFF00213A
:102760004BF60240FDF707FF00214FF43D40FDF717
:1027700002FF78214BF60150FDF7FDFE00214BF6DC
:102780000250FDF7F8FE00214FF43E40FDF7F3FE46
:1027900064214BF60160FDF7EEFE00214FF451403D
:1027A000FDF7E9FE33214DF20110FDF7E4FE0021B3
:1027B0004DF20210FDF7DFFE34214DF20310FDF75C
:1027C000DAFE00214DF20410FDF7D5FE3A214DF25C
:1027D0000510FDF7D0FE00214DF20610FDF7CBFEEF
:1027E0004A214DF20710FDF7C6FE00214DF20810F8
:1027F000FDF7C1FE5C214DF20910FDF7BCFE002182
:102800004DF20A10FDF7B7FE81214DF20B10FDF7D6
:10281000B2FE00214DF20C10FDF7ADFEA6214DF2E7
:102820000D10FDF7A8FE00214DF20E10FDF7A3FEDE
:10283000E5214DF20F10FDF79EFE01214DF2101023
:10284000FDF799FE13214DF21110FDF794FE0121C1
:102850004DF21210FDF78FFE54214DF21310FDF7CB
:102860008AFE01214DF21410FDF785FE82214DF202
:102870001510FDF780FE01214DF21610FDF77BFECD
:10288000CA214DF21710FDF776FE02214DF2181005
:10289000FDF771FE00214DF21910FDF76CFE0221CB
:1028A0004DF21A10FDF767FE01214DF21B10FDF7E6
:1028B00062FE02214DF21C10FDF75DFE34214DF247
:1028C0001D10FDF758FE02214DF21E10FDF753FEBC
:1028D00067214DF21F10FDF74EFE02214DF2201030
:1028E000FDF749FE84214DF22110FDF744FE02213F
:1028F0004DF22210FDF73FFEA4214DF22310FDF70B
:102900003AFE02214DF22410FDF735FEB7214DF2BB
:102910002510FDF730FE02214DF22610FDF72BFEAB
:10292000CF214DF22710FDF726FE02214DF228108F
:10293000FDF721FEDE214DF22910FDF71CFE0221DC
:102940004DF22A10FDF717FEF2214DF22B10FDF784
:1029500012FE02214DF22C10FDF70DFEFE214DF26C
:102960002D10FDF708FE03214DF22E10FDF703FE9A
:1029700010214DF22F10FDF7FEFD03214DF2301016
:10298000FDF7F9FD33214DF23110FDF7F4FD032180
:102990004DF23210FDF7EFFD6D214DF23310FDF7D2
:1029A000EAFD00214FF45240FDF7E5FD33214DF2E1
:1029B0000120FDF7E0FD00214DF20220FDF7DBFDD7
:1029C000342101E0580100204DF20320FDF7D3FD32
:1029D00000214DF20420FDF7CEFD3A214DF20520F5
:1029E000FDF7C9FD00214DF20620FDF7C4FD4A2187
:1029F0004DF20720FDF7BFFD00214DF20820FDF745
:102A0000BAFD5C214DF20920FDF7B5FD00214DF224
:102A10000A20FDF7B0FD81214DF20B20FDF7ABFD43
:102A200000214DF20C20FDF7A6FDA6214DF20D2050
:102A3000FDF7A1FD00214DF20E20FDF79CFDE521E3
:102A40004DF20F20FDF797FD01214DF21020FDF70B
:102A500092FD13214DF21120FDF78DFD01214DF264
:102A60001220FDF788FD54214DF21320FDF783FD60
:102A700001214DF21420FDF77EFD82214DF215203B
:102A8000FDF779FD01214DF21620FDF774FDCA21F5
:102A90004DF21720FDF76FFD02214DF21820FDF7D2
:102AA0006AFD00214DF21920FDF765FD02214DF26E
:102AB0001A20FDF760FD01214DF21B20FDF75BFDA3
:102AC00002214DF21C20FDF756FD34214DF21D2050
:102AD000FDF751FD02214DF21E20FDF74CFD67214F
:102AE0004DF21F20FDF747FD02214DF22020FDF79A
:102AF00042FD84214DF22120FDF73DFD02214DF2E2
:102B00002220FDF738FDA4214DF22320FDF733FDEF
:102B100002214DF22420FDF72EFDB7214DF2252094
:102B2000FDF729FD02214DF22620FDF724FDCF21DE
:102B30004DF22720FDF71FFD02214DF22820FDF761
:102B40001AFDDE214DF22920FDF715FD02214DF27F
:102B50002A20FDF710FDF2214DF22B20FDF70BFD91
:102B600002214DF22C20FDF706FDFE214DF22D2015
:102B7000FDF701FD03214DF22E20FDF7FCFC102195
:102B80004DF22F20FDF7F7FC03214DF23020FDF729
:102B9000F2FC33214DF23120FDF7EDFC03214DF223
:102BA0003220FDF7E8FC6D214DF23320FDF7E3FC08
:102BB00000214FF45340FDF7DEFC33214DF201308C
:102BC000FDF7D9FC00214DF20230FDF7D4FC342191
:102BD0004DF20330FDF7CFFC00214DF20430FDF73C
:102BE000CAFC3A214DF20530FDF7C5FC00214DF23B
:102BF0000630FDF7C0FC4A214DF20730FDF7BBFC63
:102C000000214DF20830FDF7B6FC5C214DF2093091
:102C1000FDF7B1FC00214DF20A30FDF7ACFC81213B
:102C20004DF20B30FDF7A7FC00214DF20C30FDF703
:102C3000A2FCA6214DF20D30FDF79DFC00214DF2C6
:102C40000E30FDF798FCE5214DF20F30FDF793FCB7
:102C500001214DF21030FDF78EFC13214DF21130A1
:102C6000FDF789FC01214DF21230FDF784FC54215F
:102C70004DF21330FDF77FFC01214DF21430FDF7CA
:102C80007AFC82214DF21530FDF775FC01214DF2E1
:102C90001630FDF770FCCA214DF21730FDF76BFCC2
:102CA00002214DF21830FDF766FC00214DF219307B
:102CB000FDF761FC02214DF21A30FDF75CFC0121A9
:102CC0004DF21B30FDF757FC02214DF21C30FDF791
:102CD00052FC34214DF21D30FDF74DFC02214DF226
:102CE0001E30FDF748FC67214DF21F30FDF743FC15
:102CF00002214DF22030FDF73EFC84214DF22130BF
:102D0000FDF739FC02214DF22230FDF734FCA421FD
:102D10004DF22330FDF72FFC02214DF22430FDF758
:102D20002AFCB7214DF22530FDF725FC02214DF29A
:102D30002630FDF720FCCF214DF22730FDF71BFC9C
:102D400002214DF22830FDF716FCDE214DF229302C
:102D5000FDF711FC02214DF22A30FDF70CFCF221A7
:102D60004DF22B30FDF707FC02214DF22C30FDF720
:102D700002FCFE214DF22D30FDF7FDFB03214DF24B
:102D80002E30FDF7F8FB10214DF22F30FDF7F3FB4D
:102D900003214DF23030FDF7EEFB33214DF231309F
:102DA000FDF7E9FB03214DF23230FDF7E4FB6D2125
:102DB0004DF23330FDF7DFFB00214FF45440FDF7B7
:102DC000DAFB33214DF20140FDF7D5FB00214DF236
:102DD0000240FDF7D0FB34214DF20340FDF7CBFB61
:102DE00000214DF20440FDF7C6FB3A214DF20540AB
:102DF000FDF7C1FB00214DF20640FDF7BCFB4A2167
:102E00004DF20740FDF7B7FB00214DF20840FDF7FA
:102E1000B2FB5C214DF20940FDF7ADFB00214DF204
:102E20000A40FDF7A8FB81214DF20B40FDF7A3FB03
:102E300000214DF20C40FDF79EFBA6214DF20D4006
:102E4000FDF799FB00214DF20E40FDF794FBE521C3
:102E50004DF20F40FDF78FFB01214DF21040FDF7C1
:102E60008AFB13214DF21140FDF785FB01214DF244
:102E70001240FDF780FB54214DF21340FDF77BFB20
:102E800001214DF21440FDF776FB82214DF21540F1
:102E9000FDF771FB01214DF21640FDF76CFBCA21D5
:102EA0004DF21740FDF767FB02214DF21840FDF788
:102EB00062FB00214DF21940FDF75DFB02214DF24E
:102EC0001A40FDF758FB01214DF21B4000E005E3DD
:102ED000FDF751FB02214DF21C40FDF74CFB342164
:102EE0004DF21D40FDF747FB02214DF21E40FDF75C
:102EF00042FB67214DF21F40FDF73DFB02214DF2E1
:102F00002040FDF738FB84214DF22140FDF733FBD3
:102F100002214DF22240FDF72EFBA4214DF2234069
:102F2000FDF729FB02214DF22440FDF724FBB721D8
:102F30004DF22540FDF71FFB02214DF22640FDF723
:102F40001AFBCF214DF22740FDF715FB02214DF270
:102F50002840FDF710FBDE214DF22940FDF70BFB69
:102F600002214DF22A40FDF706FBF2214DF22B40E3
:102F7000FDF701FB02214DF22C40FDF7FCFAFE218A
:102F80004DF22D40FDF7F7FA03214DF22E40FDF7EB
:102F9000F2FA10214DF22F40FDF7EDFA03214DF228
:102FA0003040FDF7E8FA33214DF23140FDF7E3FA06
:102FB00003214DF23240FDF7DEFA6D214DF2334030
:102FC000FDF7D9FA00214FF45540FDF7D4FA33212B
:102FD0004DF20150FDF7CFFA00214DF20250FDF7FE
:102FE000CAFA34214DF20350FDF7C5FA00214DF223
:102FF0000450FDF7C0FA3A214DF20550FDF7BBFA37
:1030000000214DF20650FDF7B6FA4A214DF2075065
:10301000FDF7B1FA00214DF20850FDF7ACFA5C2142
:103020004DF20950FDF7A7FA00214DF20A50FDF7C5
:10303000A2FA81214DF20B50FDF79DFA00214DF2CD
:103040000C50FDF798FAA6214DF20D50FDF793FABA
:1030500000214DF20E50FDF78EFAE5214DF20F5092
:10306000FDF789FA01214DF21050FDF784FA132182
:103070004DF21150FDF77FFA01214DF21250FDF78C
:103080007AFA54214DF21350FDF775FA01214DF2F1
:103090001450FDF770FA82214DF21550FDF76BFACE
:1030A00001214DF21650FDF766FACA214DF2175074
:1030B000FDF761FA02214DF21850FDF75CFA00218C
:1030C0004DF21950FDF757FA02214DF21A50FDF753
:1030D00052FA01214DF21B50FDF74DFA02214DF23B
:1030E0001C50FDF748FA34214DF21D50FDF743FA0C
:1030F00002214DF21E50FDF73EFA67214DF21F509E
:10310000FDF739FA02214DF22050FDF734FA8421FF
:103110004DF22150FDF72FFA02214DF22250FDF71A
:103120002AFAA4214DF22350FDF725FA02214DF28F
:103130002450FDF720FAB7214DF22550FDF71BFA78
:1031400002214DF22650FDF716FACF214DF22750FD
:10315000FDF711FA02214DF22850FDF70CFADE219D
:103160004DF22950FDF707FA02214DF22A50FDF7E2
:1031700002FAF2214DF22B50FDF7FDF902214DF23A
:103180002C50FDF7F8F9FE214DF22D50FDF7F3F923
:1031900003214DF22E50FDF7EEF910214DF22F5084
:1031A000FDF7E9F903214DF23050FDF7E4F9332141
:1031B0004DF23150FDF7DFF903214DF23250FDF7AA
:1031C000DAF96D214DF23350FDF7D5F900214FF4B6
:1031D0005640FDF7D0F933214DF20160FDF7CBF9F0
:1031E00000214DF20260FDF7C6F934214DF2036073
:1031F000FDF7C1F900214DF20460FDF7BCF93A2159
:103200004DF20560FDF7B7F900214DF20660FDF7BC
:10321000B2F94A214DF20760FDF7ADF900214DF2F8
:103220000860FDF7A8F95C214DF20960FDF7A3F9EC
:1032300000214DF20A60FDF79EF981214DF20B60ED
:10324000FDF799F900214DF20C60FDF794F9A621E4
:103250004DF20D60FDF78FF900214DF20E60FDF784
:103260008AF9E5214DF20F60FDF785F901214DF254
:103270001060FDF780F913214DF21160FDF77BF925
:1032800001214DF21260FDF776F954214DF21360E1
:10329000FDF771F901214DF21460FDF76CF98221FF
:1032A0004DF21560FDF767F901214DF21660FDF74B
:1032B00062F9CA214DF21760FDF75DF902214DF266
:1032C0001860FDF758F900214DF21960FDF753F928
:1032D00002214DF21A60FDF74EF901214DF21B60FB
:1032E000FDF749F902214DF21C60FDF744F9342144
:1032F0004DF21D60FDF73FF902214DF21E60FDF712
:103300003AF967214DF21F60FDF735F902214DF2C0
:103310002060FDF730F984214DF22160FDF72BF993
:1033200002214DF22260FDF726F9A4214DF223601F
:10333000FDF721F902214DF22460FDF71CF9B721B8
:103340004DF22560FDF717F902214DF22660FDF7D9
:1033500012F9CF214DF22760FDF70DF902214DF250
:103360002860FDF708F9DE214DF22960FDF703F929
:1033700002214DF22A60FDF7FEF8F2214DF22B609A
:10338000FDF7F9F802214DF22C60FDF7F4F8FE216B
:103390004DF22D60FDF7EFF803214DF22E60FDF7A1
:1033A000EAF810214DF22F60FDF7E5F803214DF208
:1033B0003060FDF7E0F833214DF23160FDF7DBF8C6
:1033C00003214DF23260FDF7D6F86D214DF23360E6
:1033D000FDF7D1F855214FF47040FDF7CCF8AA2144
:1033E0004FF20100FDF7C7F852214FF20200FDF73E
:1033F000C2F808214FF20300FDF7BDF800214FF29B
:103400000400FDF7B8F8CC214FF43140FDF7B3F8D4
:1034100000214BF20110FDF7AEF805214FF43640C4
:10342000FDF7A9F870214FF43740FDF7A4F870219B
:103430004BF20170FDF79FF801214FF43840FDF782
:103440009AF803214BF60100FDF795F803214BF69E
:103450000200FDF790F803214BF60300FDF78BF80F
:1034600002214FF43C40FDF786F800214BF6014065
:10347000FDF781F800214BF60240FDF77CF8D021E2
:103480004FF44940FDF777F802214CF60110FDF7A3
:1034900072F850214CF60210FDF76DF850214CF6F1
:1034A0000310FDF768F850214CF60410FDF763F89F
:1034B00000214FF45450FDF75EF855214FF4685049
:1034C000FDF759F84FF48850FDF73AF8782002F0EC
:1034D00059FD4FF42450FDF733F8BDE0FE488088D5
:1034E00041F663118842F8D1E220FDF729F81D204A
:1034F000FDF72FF80220FDF72CF80420FDF729F83E
:10350000642002F03FFDE020FDF71AF80120FDF7EE
:1035100020F80A2002F07EFDE020FDF711F80320DC
:10352000FDF717F80C2002F075FD0120FDF708F8F3
:103530000A2002F06FFDE620FDF702F82F20FDF7CC
:1035400008F8FF20FDF705F8FF20FDF702F8B0208E
:10355000FCF7F6FF2020FCF7FCFF0020FCF7F9FF4A
:103560000320FCF7F6FF40F21F30FCF7F2FF0120CA
:10357000FCF7EFFF40F2DF10FCF7EBFF0020FCF759
:10358000E8FFB420FCF7DCFF0420FCF7E2FF40F288
:103590001F40FCF7DEFF0020FCF7DBFF2E20FCF7CE
:1035A000D8FF0020FCF7D5FF0020FCF7D2FF002059
:1035B000FCF7CFFF0020FCF7CCFFB620FCF7C0FFE4
:1035C0000220FCF7C6FF4FF40370FCF7C2FF002097
:1035D000FCF7BFFF1720FCF7BCFF1520FCF7B9FF75
:1035E0000020FCF7B6FF0020FCF7B3FFF020FCF74B
:1035F000A7FF0320FCF7ADFF2920FCF7A1FFD02097
:10360000FCF79EFF0020FCF7A4FFBE20FCF798FF0C
:103610000520FCF79EFFFE20FCF79BFF0120FCF736
:1036200098FF0020FCF795FF0020FCF792FF002098
:10363000FCF78FFFB820FCF783FF0320FCF789FF1E
:103640000120FCF786FFBA20FCF77AFF0120FCF787
:1036500080FF6420FDF74FFA0020FDF778FA012083
:103660009E4908604FF6FF70FDF7C6FB21B000BD14
:103670002DE9F04F05460E4617469846DDF824A082
:103680004FF0000B781B401C1FFA80FB344614E0FF
:1036900021462846FCF79EFFFCF77FFF4FF000090C
:1036A00007E04FF0D840A0F880A009F101001FFA10
:1036B00080F9D945F5DB601C84B24445E8DDBDE8FE
:1036C000F08F2DE9F84F07460D4690469946DDF8F4
:1036D00028B0A8EB0700401C1FFA80FAA9EB0500F0
:1036E000401C80B20090002414E0281981B23846B2
:1036F000FCF770FFFCF751FF002607E004FB0A60AF
:103700003BF8100076490880701C86B25645F5DB00
:10371000601C84B200988442E7DBBDE8F88F2DE995
:10372000FF4F84B081468A4600200390029006989D
:10373000A0EB09050798A0EB0A06CDF80490CDF898
:1037400000A0002D01DD012705E00DB9002702E0F2
:103750004FF0FF376D42002E02DD4FF0010806E00A
:1037600016B94FF0000802E04FF0FF387642B5423C
:1037700001DD2C4600E034464FF0000B21E0009ABA
:1037800091B2019A90B2FDF731F903982844039061
:103790000298304402900398A04205DD0398001B74
:1037A00003900198384401900298A04205DD0298E8
:1037B000001B02900098404400900BF101001FFA9A
:1037C00080FB601C8345DADD08B0BDE8F08FF0B502
:1037D00004460D4616461F462B46324629462046CD
:1037E000FFF79DFF3B46224629462046FFF797FFFD
:1037F0003B46324639462046FFF791FF3B4632466C
:1038000029463046FFF78BFFF0BD2DE9F043064611
:103810000F469046002445460320A0EB48093CE0B3
:103820007A1B91B2321990B2FDF7E0F83A1B91B2CF
:10383000721990B2FDF7DAF83A1991B2721990B292
:10384000FDF7D4F87A1991B2321990B2FDF7CEF89B
:103850007A1991B2321B90B2FDF7C8F83A1991B2B9
:10386000721B90B2FDF7C2F87A1B91B2321B90B274
:10387000FDF7BCF83A1B91B2721B90B2FDF7B6F897
:10388000641CB9F1000F03DAA000801D814404E03C
:10389000601B80000A3081446D1EAC42C0DDBDE873
:1038A000F0832DE9F84F80460E4617461C46B34676
:1038B0002046E31704EB5373DB1021464FEAE47C08
:1038C00004EB5C7C4FEAEC0CA4EBCC0CBCF1000FDD
:1038D00008D04FF0010C07E058010020BC824042A4
:1038E0008000006C4FF0000C6344224604EBD27C55
:1038F0004FEA6C0C03FB0CF3DBB20093A7F1200042
:10390000C7B2002556E00C2C07D107EB47009F49B2
:1039100001EB800010F8059013E0102C05D19C48B5
:1039200000EB071010F805900BE0182C07D107EBFF
:10393000C700984901EB800010F8059001E0BDE850
:10394000F88F4FF0000A2FE009F0800030B1924864
:10395000028831464046FDF757F807E00A9828B933
:103960008E48028831464046FDF74EF84FEA4960DE
:103970004FEA1069701C86B289484088B04200DC6A
:10398000DDE7A6EB0B00A0420AD15E4608F101007C
:103990001FFA80F882480088404500DCCFE706E047
:1039A0000AF1010000F0FF0ABAF1080FCCDB00BFFA
:1039B000681CC5B200988542A5DB00BFBFE710B503
:1039C0000246012000E050430B1EA1F10104E1B2C8
:1039D000F9D110BD2DE9FF4F81B0074691461E4633
:1039E0000E9D4FF0000A002439E0301B401EC1B28A
:1039F0000A20FFF7E4FFB9FBF0F00A21B0FBF1F277
:103A000001FB1208BAF1000F16D1701EA04213DD9F
:103A1000B8F1000F0ED10020AB4605EBDB71491069
:103A200001FB0471009088B22B4620220299FFF717
:103A300038FF12E04FF0010A0020AB4605EBDB71C6
:103A4000491001FB0471009088B208F13001CAB23C
:103A50002B460299FFF725FF00BF601CC4B2B44299
:103A6000C3DB05B0BDE8F08F2DE9FF4F82B00646FD
:103A700092461F46DDE90F480020019000254DE0E9
:103A8000781B401EC1B20A20FFF799FFBAFBF0F085
:103A90000A21B0FBF1F201FB1209019850BB781E1C
:103AA000A84227DDB9F1000F22D108F0800078B1DB
:103AB00008F00100A34604EBDB71491001FB05612E
:103AC000009088B2234630220399FFF7EAFE0EE009
:103AD00008F00100A34604EBDB71491001FB05610E
:103AE000009088B2234620220399FFF7DAFE13E004
:103AF0000120019008F00100A34604EBDB7149109E
:103B000001FB0561009088B209F13001CAB2234679
:103B10000399FFF7C6FE00BF681CC5B2BD42AFDB0C
:103B200006B0BDE8F08F2DE9F84704460D469046F3
:103B30009946DDE9096704F0FF0A08EB04001FFA63
:103B400080F809EB05001FFA80F916E0444502DB16
:103B50005446A81985B24D4500DB14E000200090C2
:103B60003A78334629462046FFF79BFE304606EB5F
:103B7000D07104EB61018CB27F1C38787E2802DCA6
:103B800038782028E2DA00BFBDE8F88778710108AC
:103B9000EC750108DC7B01081400002016000020F1
:103BA000580100201CB50121112003F08FF91C20C1
:103BB000009000208DF8040003208DF805000120FE
:103BC0008DF807006946354802F0FEFB01200090A1
:103BD00002208DF807006946314802F0F5FB1CBD54
:103BE00010B5044614B101202E4908702D48007804
:103BF000002837D01021294802F048FC78B108216C
:103C0000264802F043FC50B10421244802F03EFC57
:103C100028B10121224802F039FC012822D10A20D2
:103C200002F0F8F900201F49087010211B4802F02B
:103C30002DFC08B9012010BD0821184802F026FC0F
:103C400008B90220F7E70421144802F01FFC08B964
:103C50000320F0E70121124802F018FC01281BD1D3
:103C60000420E8E710210D4802F010FC012813D1D0
:103C700008210A4802F00AFC01280DD10421074856
:103C800002F004FC012807D10121054802F0FEFBE7
:103C900010B90120034908700020CCE70010024051
:103CA00000000240180000201CB50121022003F092
:103CB0000DF94FF44070009001208DF804000020B1
:103CC0008DF8060003208DF8050001208DF807000F
:103CD0006946894802F078FB0120884908608849D4
:103CE000C1F8A4021CBD10B58348006820F4402030
:103CF000814908600846006840F48020086001207F
:103D00007E49091D08607E49C1F8A002042002F026
:103D100039F900207949091D0860042002F032F9C0
:103D200000207749C1F8A00210BD10B572480068A4
:103D300020F44020704908600846006840F4802064
:103D4000086000206D4908606D49C1F8A402042094
:103D500002F018F90120694908606949C1F8A40214
:103D6000042002F00FF910BD10B50024624800686D
:103D700020F440206049086008460068086001207F
:103D80005E49091D086002F0FDF801205C49C1F898
:103D9000A00202F0F7F807E0601CC4B2FA2C03DDC1
:103DA000FFF7C3FF012010BD54487C38006800288D
:103DB000F2D15249086000BFF5E710B500204F4925
:103DC00008604D48006820F440204B4908600846D0
:103DD000006840F48020086000204949C1F8A4022E
:103DE000022002F0CFF8012044490860022002F0CE
:103DF000C9F800204249C1F8A00210BD10B500204A
:103E00003E4908603C48006820F440203A49086078
:103E10000846006840F48020086001203849C1F855
:103E2000A402022002F0AEF801203449086002200A
:103E300002F0A8F800203249C1F8A00210BD70B508
:103E400004462D48006820F440202B4908600846AD
:103E5000006840F4802008600020284908600025A0
:103E600017E0E0092549091D08606006040E0220DC
:103E700002F088F801202249C1F8A002022002F0D5
:103E800081F800201D490860022002F07BF8681CC0
:103E9000C5B2082DE5DB70BD70B505460024164897
:103EA000006820F440201449086008460068086053
:103EB000002616E0002011490860022002F062F896
:103EC00001200F49C1F8A0026006040E0B487C389F
:103ED000006808B1601CC4B2012002F053F8701CE5
:103EE000C6B2082EE6DB15B9FFF788FF01E0FFF741
:103EF00064FF204670BD000000040240A0824042E2
:103F00000080404210B5FFF7CFFE10BD70B50446EB
:103F10000026FFF7E8FE2546E11704EB11610912C0
:103F2000A02202EB4101C8B2FFF789FFFFF71CFF97
:103F3000E11704EB11610912A4EB0121C8B2FFF7EC
:103F40007EFFFFF711FFFFF7CEFEA120FFF777FFFF
:103F5000FFF70AFF0020FFF79FFF0646FFF7E5FE89
:103F6000304670BD70B504460E46FFF7BCFE2546D0
:103F7000E11704EB11610912A02202EB4101C8B262
:103F8000FFF75DFFFFF7F0FEE11704EB1161091287
:103F9000A4EB0121C8B2FFF752FFFFF7E5FE304660
:103FA000FFF74DFFFFF7E0FEFFF7BFFE0A2002F02C
:103FB00031F870BD2DE9F04105460E461746002444
:103FC00009E0E20026FA02F2D1B22A1990B2FFF714
:103FD000C9FF601CC4B2BC42F3DBBDE8F0812DE92F
:103FE000F04107460C460026002509E03602391943
:103FF000491B491E88B2FFF789FF0644681CC5B2F9
:10400000A542F3DB3046BDE8F08110B5FF20FFF795
:104010007DFF0446552C01D1002010BD5521FF2005
:10402000FFF7A0FFFF20FFF771FF0446552C01D1D9
:104030000020F2E70120F0E770B506460C46154671
:1040400008E03046721C96B2FFF760FF04F8010BDF
:10405000681E85B2002DF4D170BD70B505460C46C2
:10406000164606E021782846FFF77CFF681C85B2DB
:10407000641C301EA6F101018EB2F3D170BD0000A8
:1040800010B5022001F07EFF10BD1CB501210220F9
:1040900002F01CFF0121202002F018FF01200090F7
:1040A0008DF8040000208DF8060001208DF807002F
:1040B00003208DF805006946864802F085F94FF423
:1040C000006000906946844802F07EF9012083492F
:1040D00008608349C1F880021CBD10B57E480068A5
:1040E00020F440007C4908600846006840F48000E5
:1040F00008600120794908607949C1F880021E20D2
:1041000001F040FF002075490860FFF7B9FF00206B
:104110007349C1F8800210BD10B56F48006820F4E3
:1041200040006D4908600846006840F4800008605F
:1041300001206C4908601E2001F024FF00206A491C
:10414000C1F8AC02FFF79CFF01206449086010BD74
:1041500010B500246048006820F440005E49086003
:1041600008460068086001205C4908605C49C1F8A5
:104170008002FFF785FF09E0601CC4B2FA2C03DD62
:10418000FFF7CAFF012010BDFFF77AFF53488038C0
:1041900000680028F0D15349086000BFF3E710B56C
:1041A0000020504908604C48006820F440004A490B
:1041B00008600846006840F480000860FFF760FF70
:1041C00000204949C1F8AC02FFF75AFF01204549D8
:1041D0000860FFF755FF00204149C1F8800210BD7B
:1041E00010B500203F4908603B48006820F44000BB
:1041F000394908600846006840F480000860FFF70D
:104200003FFF01203849C1F8AC02FFF739FF012018
:1042100034490860FFF734FF00203149C1F88002BB
:1042200010BD70B504462C48006820F440002A49AF
:1042300008600846006840F48000086000202949B2
:104240000860FFF71DFF002511E0E0092349086021
:104250006006040E01202249C1F88002FFF710FF1A
:10426000002020490860FFF70BFF681CC5B2082D2D
:10427000EBDB70BD70B5054600241748006820F4DC
:104280004000154908600846006808601E2001F0DB
:1042900079FE002614E0002012490860FFF7F0FEC6
:1042A00001200F49C1F880026006040E0B488038D7
:1042B000006808B1601CC4B2FFF7E2FE701CC6B211
:1042C000082EE8DB15B9FFF78BFF01E0FFF767FF6A
:1042D000204670BD0004024000140240AC824242FD
:1042E0000080404280824042008042422DE9F041FD
:1042F00004460E4617464FF00008FFF7EEFE282052
:10430000FFF78FFFFFF724FF2012FFF78AFFFFF769
:104310001FFFE0B2FFF785FFFFF71AFF00250BE054
:10432000705DFFF77EFFFFF713FF8046B8F1000FC7
:1043300000D003E0681CC5B2BD42F1DB00BFFFF74F
:10434000EBFE4046BDE8F08138B50546002400206C
:104350008DF800008DF8015000BF09E09DF80000C5
:10436000DF49095D0844C0B28DF80000601CC4B28A
:10437000B82CF3D39DF80000C043401CC0B28DF8A8
:104380000000B822D64948F24700FFF7AFFF0222EB
:10439000694648F2FF00FFF7A9FF002038BD2DE96C
:1043A000F04105460F461646FFF797FE2820FFF717
:1043B00038FFFFF7CDFE2812FFF733FFFFF7C8FEE7
:1043C000E8B2FFF72EFFFFF7C3FEFFF786FE2920B6
:1043D000FFF727FFFFF7BCFE00240BE0711EA14290
:1043E00001D0012100E000210846FFF743FF3855C6
:1043F000601CC4B2B442F1DBFFF78EFEBDE8F08171
:104400001FB50121022002F061FD0121042002F00C
:104410005DFD0220009000208DF8040001208DF841
:10442000070003208DF805006946AE4801F0CCFF77
:104430004FF40050009001208DF8040000208DF80A
:1044400006006946A84801F0BFFFFFF71EFE0020E6
:10445000A64908600A2001F0DDFD0120A449C1F849
:10446000B4020A2001F0D6FD0220009001208DF850
:10447000040000208DF8070003208DF80500694630
:10448000984801F0A1FF642001F0C4FD042202A9B4
:1044900048F24010FFF783FF00208DF80C0002A9BE
:1044A00094A011F05DFE96A102A812F04BF848BB53
:1044B00002208DF80800012202A948F24000FFF70F
:1044C00015FF012202A948F24700FFF768FF9DF897
:1044D0000800602807DA9DF808108BA011F040FE54
:1044E0000120FFF731FF0A2001F094FD00208DF834
:1044F0000800012202A948F24000FFF7F7FE002061
:1045000004B010BD0020FBE771B583B00024002685
:1045100082480078401C81490870084600780A21CA
:1045200090FBF1F201FB120018B17C4800780A28D8
:104530007EDA012203A948F24E10FFF730FF002077
:104540000190012201A948F24E10FFF7CFFE9DF81D
:104550000C0000F00F0000286AD09DF80C0000F05D
:104560000F000628E4DA9DF80C0000F00F01FF2090
:104570008840C0B201906A4890F820509DF804002D
:10458000C043C0B240F0C000654981F82000084631
:1045900081898182C18AC183002444E0604890F807
:1045A00020000121A140084020B35E4931F81400E9
:1045B000042202A9FFF7F3FE594890F8300000F0FA
:1045C0000100C0B19DF808009DF8091000EB012022
:1045D00081B25348163020F814109DF80A009DF857
:1045E0000B1000EB0120C0F5487081B24C480C3034
:1045F00020F8141015E09DF808009DF8091000EB54
:10460000012081B246480C3020F814109DF80A00B1
:104610009DF80B1000EB012081B24148163020F8C4
:104620001410601CC4B2052CB8DB01263C4800E025
:104630002BE080893C490988884205DC3848C08ADB
:104640003949498888421DDD9DF80C0000F00F00B3
:1046500001280ADD3248C089314988810846008B2B
:10466000C88200202D4908700FE02D48808A2C490F
:1046700088810846C08BC88280200390084680F855
:10468000205002E00020254908709DF80C0000F041
:104690008F00802819D1224890F8200000F0800077
:1046A00038B11F4890F8200020F080001C4981F8A4
:1046B00020004FF6FF701A498881C882084690F89A
:1046C000200000F0E00081F8200014480078F02875
:1046D00002DD0A2011490870304604B070BD0000A8
:1046E000388901080004024000080240B402414237
:1046F000000041424354502049443A25730D0A00BA
:10470000393134370000000044656661756C7420EF
:104710005665723A25640D0A000000001900002059
:104720001C000020F0890108580100202DE9F0410B
:1047300004460E4617464FF00008FFF7CEFCB220A5
:10474000FFF76FFDFFF704FD2012FFF76AFDFFF78B
:10475000FFFCE0B2FFF765FDFFF7FAFC00250BE078
:10476000705DFFF75EFDFFF7F3FC8046B8F1000FC8
:1047700000D003E0681CC5B2BD42F1DB00BFFFF70B
:10478000CBFC4046BDE8F0812DE9F04105460F46DF
:104790001646FFF7A2FCB220FFF743FDFFF7D8FC57
:1047A0002812FFF73EFDFFF7D3FCE8B2FFF739FD13
:1047B000FFF7CEFCFFF791FCB320FFF732FDFFF7C8
:1047C000C7FC00240BE0711EA14201D0012100E0D2
:1047D00000210846FFF74EFD3855601CC4B2B442B4
:1047E000F1DBFFF799FCBDE8F08138B50446002005
:1047F00000900CB180200090012269464FF4506077
:10480000FFF794FF38BD0EB5002002900121022071
:1048100002F05CFB0121042002F058FB0220009012
:1048200000208DF8040001208DF8070003208DF88A
:1048300005006946914801F0C7FD4FF40050009013
:1048400001208DF8040000208DF8060069468C4890
:1048500001F0BAFDFFF719FC00208A4908606420C6
:1048600001F0D8FB01208849C1F8B402642001F0AE
:10487000D1FB0120FFF7B9FF012202A94FF45060DC
:10488000FFF782FF9DF8081080A011F069FC9DF8E9
:104890000800802801D100200EBD0120FCE731B5C1
:1048A0002DED068B82B0002400257B480078401C4B
:1048B00079490870084600780A2190FBF1F201FB63
:1048C000120018B1744800780A287DDA012208A97C
:1048D0000020FFF759FF9DF8200000F01F0000287E
:1048E00072D09DF8200000F01F0040F0C0006B491E
:1048F00081F82000002486E0684890F8200001211B
:10490000A140084000287CD0654931F814000422F9
:1049100001A9FFF739FF614890F8300000F001006D
:10492000D0B39DF807109DF8062001EB022012F08D
:1049300050F841EC190B9FED5B0B53EC102B12F070
:10494000AFF841EC180B12F017F881B2534816304B
:1049500020F814109DF805109DF8042001EB0220AA
:1049600012F037F841EC1A0B9FED500B53EC102B63
:1049700012F096F841EC190B9FED4E0B53EC102BF7
:1049800012F0C2F941EC180B11F0F6FF81B2434866
:104990000C3020F8141034E0FFE79DF807109DF864
:1049A000062001EB022012F014F841EC190B9FEDE8
:1049B0003D0B53EC102B12F073F841EC180B11F077
:1049C000DBFF81B2354800E02CE00C3020F81410F9
:1049D0009DF805109DF8042001EB022011F0F9FF6D
:1049E00041EC190B9FED310B53EC102B12F058F8E2
:1049F00041EC180B11F0C0FF81B22848163020F8A6
:104A00001410601CC4B2052CFFF676AF01252348B4
:104A1000808920B92148C08A08B900200890002068
:104A20001D4908709DF8200000F01F00D0B91B48F8
:104A300090F8200000F0800040B1184890F8200065
:104A400020F08000154981F820000BE04FF6FF7040
:104A500012498881C882084690F8200000F0E000E2
:104A600081F820000C480078F02802DD0A200A496D
:104A70000870284602B0BDEC068B38BD0004024029
:104A800000080240B4024142000041424354502019
:104A900049443A25780D0A001A0000201C00002025
:104AA000FA8901087B14AE47E17AD43FD881734676
:104AB00094F6D23F00000000000089402DE9F0414B
:104AC00005460E4617464FF00008FFF706FB70201C
:104AD000FFF7A7FBFFF73CFBE8B2FFF7A2FBFFF7EE
:104AE00037FB00240BE0305DFFF79BFBFFF730FB4B
:104AF0008046B8F1000F00D003E0601CC4B2BC4295
:104B0000F1DB00BFFFF708FB4046BDE8F0812DE96F
:104B1000F04106460F461546FFF7DFFA7020FFF713
:104B200080FBFFF715FBF0B2FFF77BFBFFF710FBF5
:104B3000FFF7D3FA7120FFF774FBFFF709FB00249E
:104B40000BE0691EA14201D0012100E000210846CE
:104B5000FFF790FB3855601CC4B2AC42F1DBFFF7A5
:104B6000DBFABDE8F0810EB50121022002F0AEF9BA
:104B70000121042002F0AAF90220009000208DF803
:104B8000040001208DF8070003208DF80500694618
:104B90008F4801F019FC4FF40050009001208DF86F
:104BA000040000208DF8060069468A4801F00CFCDC
:104BB000FFF76BFA002088490860142001F02AFAF8
:104BC00001208649C1F8B402322001F023FA002006
:104BD0008DF80800012202A9FFF770FF012202A947
:104BE000A420FFF76BFF16208DF80800012202A910
:104BF0008020FFF763FF0C208DF80800012202A936
:104C00008820FFF75BFF022202A9A120FFF77FFFA8
:104C10009DF8080030280ED19DF8090003280AD11C
:104C20009DF809009DF8082000EB02216CA011F00E
:104C300097FA00200EBD0120FCE771B581B0002479
:104C400000266A480078401C6849087008460078C9
:104C50000A2190FBF1F201FB120018B163480078C1
:104C60000A286ADA012201A90220FFF750FF042076
:104C700001F0D0F99DF8040000F00F0000287ED06C
:104C80009DF8040000F00F00062878DA9DF8040073
:104C900000F00F01FF208840C5B2E843C0B240F0E9
:104CA000C000534981F8200000245AE0504890F891
:104CB00020000121A1400840F0B34E4931F8140012
:104CC00004226946FFF723FF494890F8300000F0BE
:104CD0000100C0B19DF801009DF8001001F00F0126
:104CE00000EB01204249163121F814009DF8030021
:104CF0009DF8021001F00F0100EB01213C480C303F
:104D000020F814101DE09DF801009DF8001001F03E
:104D10000F0100EB0120C0F5F07081B234480C3077
:104D200020F814109DF803009DF8021001F00F0107
:104D300000EB01212E4801E011E020E0163020F8C0
:104D400014109DF8000000F0F000802807D000212A
:104D50002748163020F814100A3820F81410601C68
:104D6000C4B2052CA2DB01262148808920B9204845
:104D7000C08A08B90020019000201C4908709DF8E5
:104D8000040000F01F00D0B9194890F8200000F08E
:104D9000800040B1164890F8200020F080001449AF
:104DA00081F820000BE04FF6FF7011498881C8821E
:104DB000084690F8200000F0E00081F820000B4841
:104DC0000078F02802DD0A200849087030467CBDD2
:104DD0000004024000080240B40241420000414287
:104DE0004354502049443A25780D0A001B00002006
:104DF0001C000020048A010870B50446002500BF8D
:104E000017E004F0800018B10120FE49086002E0BC
:104E10000020FC4908606006040E0020FA49086082
:104E2000012001F0AFF80120F849C1F88002681CA8
:104E3000C5B2082DE5DB70BD70B50646002500241F
:104E40000020F1490860F249C1F8AC02F14908605C
:104E50003046FFF7D1FF062001F094F80020EB491F
:104E6000C1F88002012001F08DF80120E6490860B8
:104E700001F088F80020E549C1F8800200BF15E084
:104E80004FF6FF7000EA44040020DF49086001206B
:104E900001F078F80120DD49C1F88002DA4878385D
:104EA000006808B1601C84B2681CC5B2102DE7DB35
:104EB00024110120D7490860204670BD2DE9FE432A
:104EC00080460027002406E04046FFF7B5FF2DF896
:104ED0001400601C84B2052CF6DB002416E0601C74
:104EE00085B20FE03DF814003DF81510884207DD4B
:104EF0003DF814603DF815002DF814002DF81560EC
:104F0000681C85B2052DEDDB601C84B2042CE6DB49
:104F10000027012405E03DF81400384487B2601CE6
:104F200084B2042CF7DB032097FBF0F086B2304606
:104F3000BDE8FE832DE9F04104460D46B6480078F1
:104F4000FFF7BCFF0646B5480078FFF7B7FF0746F6
:104F500026802F800120BDE8F0817FB504460D46F4
:104F600002A903A8FFF7E6FF064616B9002004B021
:104F700070BD694601A8FFF7DDFF06460EB90020A7
:104F8000F5E7BDF80400BDF80C10884206DCBDF85A
:104F90000C10BDF80400323081420CDBBDF80C006F
:104FA000BDF80410884236DCBDF80410BDF80C00D2
:104FB000323081422FDABDF80000BDF80810884277
:104FC00006DCBDF80810BDF80000323081420CDB71
:104FD000BDF80800BDF8001088421CDCBDF80010C8
:104FE000BDF808003230814215DABDF80C10BDF86A
:104FF0000420881800EBD071C1F34F012180BDF867
:105000000810BDF80020881800EBD071C1F34F01E3
:1050100029800120ABE70020A9E770B504460D46C2
:1050200016467F48068004F10D018AB2193988B20C
:105030002B462946FEF773FB05F10D0083B21938A4
:1050400081B222462046FEF76AFB6A1C91B2621CBE
:1050500090B2FBF7CBFC6A1C91B2621E90B2FBF7D8
:10506000C5FC6A1E91B2621C90B2FBF7BFFC6A1EBF
:1050700091B2621E90B2FBF7B9FC06222946204687
:10508000FEF7C3FB70BD70B504460D461646644876
:10509000068029462046FBF7A9FC611C88B22946F8
:1050A000FBF7A4FC681C81B22046FBF79FFC6A1C3E
:1050B00091B2621C90B2FBF799FC70BD10B504462A
:1050C00051487C38006800284ED12CB15549A1F1D7
:1050D0000A00FFF742FF35E05249A1F10A00FFF74D
:1050E0003CFF78B34F481638B0F92C0000EE100A98
:1050F000B8EEC00A4B48163890ED091A808900EEC8
:10510000900AF8EE600A01EE200ABCEEC00A10EE2A
:10511000100A4449163988810846B0F92E0000EE7D
:10512000100AB8EEC00A084690ED0A1AC08A00EECE
:10513000900AF8EE600A01EE200ABCEEC00A10EEFA
:10514000100AC8823748163890F8200000F0800016
:1051500038BBC0203349163981F8200008468189C0
:105160008182C18AC1831CE02E48163890F8200045
:1051700000F0800050B12B48163890F8200020F045
:1051800080002849163981F820000AE000212548CE
:1051900016388182C1834FF6FF7022491639888103
:1051A000C8822048163890F8200000F0800010BD1A
:1051B00010B51C48163890ED090ADFED1B0A20EEE9
:1051C000200ABDEEC00A10EE104A04222146282013
:1051D000FEF7F0FE1348163890ED0A0ADFED120ACA
:1051E00020EE200ABDEEC00A10EE104A042221462D
:1051F0002C20FEF7DFFE0B481638B0F92C100222E7
:10520000302013E0AC824242808240420080404223
:1052100000804242B4024142500000205100002070
:10522000140000203200002020BCBE4CFEF7C2FE5D
:10523000FE48B0F92E1002223220FEF7BBFEFB48DA
:1052400090F830103420FEF78DFE0A2421463520D8
:10525000FEF788FE10BD10B53520FEF757FE044658
:105260000A2C46D104212820FEF7B9FE044600EEA0
:10527000104AB8EEC00A5FED140A80EE201AEB481F
:1052800080ED091A04212C20FEF7A9FE044600EE49
:10529000104AB8EEC00A5FED1C0A80EE201AE348FF
:1052A00080ED0A1A02213020FEF799FE00B2DF4994
:1052B000888502213220FEF792FE00B2DB49C885C4
:1052C0003420FEF723FED94981F83000084690F8D3
:1052D000300030B19020D6490870D020D5490870F0
:1052E00005E0D020D24908709020D24908700120F2
:1052F00010BD0020FCE72DE9FC5F04460D46174673
:105300001E46DDE90EABDDE90C894FF47840CA4951
:105310000880CAA01021CDE90010C948438802883E
:10532000A0212820FEF7FFFBC6A01021CDE9001028
:10533000C34843880288A0217820FEF7F4FBC2A06E
:105340001021CDE90010BE4843880288B4212820EE
:10535000FEF7E9FBBDA01021CDE90010B848438855
:105360000288B4217820FEF7DEFBB9A01021CDE938
:105370000010B34843880288C8212820FEF7D3FBD9
:10538000B4A01021CDE90010AD4843880288C8219F
:105390007820FEF7C8FBB0A01021CDE90010A84886
:1053A00043880288DC212820FEF7BDFBABA010213A
:1053B000CDE90010A24843880288DC217820FEF75E
:1053C000B2FBA7A01021CDE900109D4843880288B8
:1053D000F0212820FEF7A7FB102004232246A0215D
:1053E00000904020FEF7F6FA102004232A46A02160
:1053F00000909020FEF7EEFA102004233A46B421E4
:1054000000904020FEF7E6FA102004233246B42133
:1054100000909020FEF7DEFA102004234246C821B7
:1054200000904020FEF7D6FA102004234A46C821F7
:1054300000909020FEF7CEFA102004235246DC2183
:1054400000904020FEF7C6FA102004235A46DC21C3
:1054500000909020FEF7BEFA102003230090F02168
:105460006020109AFEF7B6FABDE8FC9F00B597B031
:10547000002012900B9012901F216F4801804FF670
:10548000FF71794801800846FBF7B6FC4FF478417C
:10549000694801804FF6FF70FBF7AEFC00206649BB
:1054A00008807248006810216423A022CDE9001012
:1054B00028210846FEF737FB4FF4784214210846AE
:1054C000FFF7ABFD0020594981F820009FED680AE5
:1054D000084680ED090A53E2544840680A900120CA
:1054E0000A998847514890F8200000F0C0004028F1
:1054F0006FD100200B904D4890F8200020F0400024
:105500004A4981F820000846818913AA129822F896
:1055100020104648C18A129802EB80004180129800
:10552000401CC0B212901298012806D0022815D053
:10553000032829D0042810D141E04FF6FF7214212E
:105540000846FFF76AFD3E480088143880B24FF4E1
:10555000784214210A90FFF760FDEBE33848008899
:10556000143880B24FF6FF7214210A90FFF755FDF0
:1055700033484088143880B24FF4784201460A908C
:105580001420FFF74AFDD5E32D484088143880B237
:105590004FF6FF7201460A901420FFF73EFD28489F
:1055A0004088143880B20A9025480088143880B2A8
:1055B0004FF4784209900A99FFF72FFDBAE3BDF83E
:1055C0004C10BDF85000081A0A90002802DB0A9817
:1055D00002E0B0E30A9840420F90BDF84E1013A8C5
:1055E000C088081A0A90002801DB0A9801E00A988E
:1055F00040420E900F9840430F900E9840430E90FB
:10560000DDE90E100844059011F0FAF9CDE9060124
:105610009DED060B11F0BEF88DED080B9DED080B0E
:1056200051EC100B11F0A8F980B223E01C0000200F
:1056300050000020510000201400002078313A0072
:105640005801002079313A0078323A0079323A0034
:1056500078333A0079333A0078343A0079343A00B2
:105660006661632069733A0016000020108A010801
:10567000000000001190BDF85400BDF85810401A09
:105680000A90002801DB0A9801E00A9840420F9036
:1056900013A84189C089081A0A90002801DB0A98DA
:1056A00001E00A9840420E900F9840430F900E98E8
:1056B00040430E90DDE90E100844059011F0A0F96A
:1056C000CDE906019DED060B11F064F88DED080B98
:1056D0009DED080B51EC100B11F04EF980B21090BB
:1056E0009DED110AF8EE400A9DED100AB8EE401A41
:1056F00080EE810A8DED0A0A0A9811F0C7FCCDE907
:105700000C019FEDFE0B53EC102B9DED0C0B51EC9F
:10571000100B11F089F90ED39FEDFA0B53EC102BFF
:105720009DED0C0B51EC100B11F0B8FA03D311984E
:1057300008B11098F0BB00201290F448408814384B
:1057400080B20A90F1480088143880B24FF6FF7298
:1057500009900A99FFF761FC4FF47842142108463A
:10576000FFF75BFC9FEDEA0B53EC102B9DED0C0B50
:1057700051EC100B11F094F9CDE908019DED080BE7
:1057800051EC100B11F0F8F880B213A90A90C989F6
:10579000BDF8582013AB5B89CDE90132CDE9031088
:1057A000BDF85400009013A8C0880990BDF85000BF
:1057B000089000E00AE0BDF84E000790BDF84C00EC
:1057C000069007A90EC9FFF796FDC3E2BDF84C107D
:1057D000BDF85400081A0A90002801DB0A9801E07D
:1057E0000A9840420F90BDF84E1013A84089081A3D
:1057F0000A90002801DB0A9801E00A9840420E90C6
:105800000F9840430F900E9840430E90DDE90E1024
:105810000844059011F0F4F8CDE906019DED060B62
:1058200010F0B8FF8DED080B9DED080B51EC100B3F
:1058300011F0A2F880B21190BDF85010BDF85800D8
:10584000081A0A90002801DB0A9801E00A984042F1
:105850000F9013A8C188C089081A0A90002801DB9C
:105860000A9801E00A9840420E900F9840430F902A
:105870000E9840430E90DDE90E100844059011F09B
:10588000BFF8CDE906019DED060B10F083FF8DED0D
:10589000080B9DED080B51EC100B11F06DF880B268
:1058A00010909DED110AF8EE400A9DED100AB8EE39
:1058B000401A80EE810A8DED0A0A0A9811F0E6FB83
:1058C000CDE90C019FED8D0B53EC102B9DED0C0BD6
:1058D00051EC100B11F0A8F80AD39FED8A0B53EC92
:1058E000102B9DED0C0B51EC100B11F0D7F948D299
:1058F0000020129085484088143880B20A9083486E
:105900000088143880B24FF6FF7209900A99FFF7A9
:1059100084FB4FF4784214210846FFF77EFB9FED8D
:105920007C0B53EC102B9DED0C0B51EC100B11F07C
:10593000B7F8CDE908019DED080B51EC100B11F003
:105940001BF880B213A90A90C989BDF8582013AB7F
:105950005B89CDE90132CDE90310BDF85400009018
:1059600013A8C0880990BDF850000890BDF84E00FB
:105970000790BDF84C00069007A90EC9FFF7BBFCC5
:10598000E8E1BDF85000BDF85410401A0A90002814
:1059900001DB0A9801E00A9840420F9013A8C188E1
:1059A0004089081A0A90002801DB0A9801E00A9849
:1059B00040420E900F9840430F900E9840430E9037
:1059C000DDE90E100844059011F01AF8CDE9060142
:1059D0009DED060B10F0DEFE8DED080B9DED080B26
:1059E00051EC100B10F0C8FF80B21190BDF84C00C4
:1059F000BDF85810401A0A90002801DB0A9801E00F
:105A00000A9840420F90BDF84E1013A8C089081A9A
:105A10000A90002801DB0A9801E00A9840420E90A3
:105A20000F9840430F900E9840430E90DDE90E1002
:105A30000844059010F0E4FFCDE906019DED060B4A
:105A400010F0A8FE8DED080B9DED080B51EC100B2E
:105A500010F092FF80B210909DED110AF8EE400A0E
:105A60009DED100AB8EE401A80EE810A8DED0A0A0B
:105A70000A9811F00BFBCDE90C019FED200B53ECC4
:105A8000102B9DED0C0B51EC100B10F0CDFF0AD339
:105A90009FED1C0B53EC102B9DED0C0B51EC100BE0
:105AA00011F0FCF858D200201290184840881438A1
:105AB00080B20A9015480088143880B24FF6FF7201
:105AC00009900A99FFF7A9FA4FF478421421084681
:105AD000FFF7A3FA9FED0E0B53EC102B9DED0C0B73
